:100000000C9415020C94CB0B0C945C020C945C02C7
:100010000C945C020C945C020C945C020C945C02E8
:100020000C945C020C945C020C9473200C9446219A
:100030000C94FF180C945C020C945C020C945C020F
:100040000C945C020C945C020C945C020C945C02B8
:100050000C945C020C944C190C945C020C945C02A1
:100060000C945C020C945C020C945C020C945C0298
:100070000C945C020C945C020C945C020C945C0288
:100080000C945C020C945C020C945C020C945C0278
:100090000C945C020C945C020C945C020C945C0268
:1000A0000C945C020C945C020C945C0235001E0003
:1000B0001F0020002100220023002B0014001A0042
:1000C000080015001700E2000000040016000700F9
:1000D00009000A002A0046001D001B000600190046
:1000E000050000425000520051000153E0002C0076
:1000F000E30029002E002D00270026002500240003
:100100003100130012000C0018001C0033003000F6
:100110002F000F000E000D000B00340013133800E9
:100120003700360010001100E700000F4F005000AC
:10013000E6002C11E5002800AE00AB00AC00AA00E0
:10014000A900A8000000000000000000F00000006E
:10015000FA00E2000000FC00F200F100F300FB00F6
:10016000000000000000000000000000F900000096
:100170000000000000000100E0000000E3000000BB
:10018000000000000000000000000000000000006F
:100190000000000000000000000000000000F60069
:1001A000F500F40000000000000000000000000066
:1001B00000000000E7000000000000000000010057
:1001C000E500000029003A003B003C003D003E00F5
:1001D0000000000044004500680069006A00E20079
:1001E0000000700071007200730000000000000049
:1001F00000000000000000000000000000000000FF
:100200000000E0000000E3000000000043004200A6
:10021000410040003F00000000006F006E006D00D4
:100220006C006B00000000000000000000000000F7
:1002300000000000E20000000000000000000000DC
:10024000E70000000000000000000000E5000000E2
:1002500000000000000000002A2B28000000000021
:100260000000000000000000000000290000000065
:100270002C1E3420212224342627252E362D3738D3
:10028000271E1F202122232425263333362E3738DC
:100290001F0405060708090A0B0C0D0E0F1011129A
:1002A000131415161718191A1B1C1D2F3130232D66
:1002B000350405060708090A0B0C0D0E0F10111264
:1002C000131415161718191A1B1C1D2F3130354C15
:1002D000000000000000000000000000000000001E
:1002E000000000007E0F00D4FFFFFFC70000007871
:1002F00004033000000012034500720067006F0025
:10030000440061007300680000000C034F006D00A2
:100310006B006200640000000403090409023B0052
:10032000020100A0FA0904000001030101000921F3
:10033000110100012240000705810308000A090499
:1003400001000103000000092111010001228100C8
:100350000705820320000A1201100100000008EDC9
:10036000FE606000010102030105010902A101858F
:10037000020901A1000509190129051500250195AA
:100380000575018102950175038101050109300997
:10039000311581257F95027508810609381581255B
:1003A0007F950175088106050C0A38021581257FA5
:1003B000950175088106C0C005010980A10185036A
:1003C00019012AB700150126B700950175108100A3
:1003D000C0050C0901A101850419012AA00215011B
:1003E00026A002950175108100C005010906A10132
:1003F000050719E029E71500250195087501810217
:100400009501750881010507190029FF150026FFD0
:1004100000950675088100050819012905950575DF
:10042000019102950175039101C011241FBECFEF08
:10043000DAE0DEBFCDBF04B603FE27C080917D02A7
:1004400090917E02A0917F02B09180028730904B04
:10045000A740B04BD1F410927D0210927E02109210
:100460007F021092800214BE84B7877F84BF0FB6CC
:10047000F894A89580916000886180936000109244
:1004800060000FBEE0E0F8E3099511E0A0E0B1E004
:10049000E2EAFCE402C005900D92AA39B107D9F74F
:1004A00022E0AAE9B1E001C01D92AD37B207E1F741
:1004B0000E94B61D0C944F260C9400000C94530619
:1004C0000895CF93DF939C013A9521153F4168F53C
:1004D000EC01CC27D170DC01AA27B270AC01442713
:1004E00054709C012227387094FF11C080E0CD2BFE
:1004F00009F080E1AB2B09F08062452B09F08064A4
:10050000232B09F08068FB01DF91CF91099481E0F2
:10051000CD2B09F480E0AB2B09F08260452B09F06C
:100520008460232B81F38860EECFDF91CF91089513
:10053000CF93DF93EC01805E9109089720F064E28D
:1005400071E1209711F46FE97EE0CE010E94610213
:100550008C2FDF91CF910C94A40DCF93DF93EC01FE
:100560000E94360ECE01805E9109089720F06BE262
:1005700071E1209711F466EA7EE0CE01DF91CF9120
:100580000C946102CF93DF93EC010E949802CE019C
:10059000DF91CF910C94AD0281E0089581E0089540
:1005A0000C94CE0208950C94D2021F93CF93DF9344
:1005B00000D000D01F92CDB7DEB749835A836B833A
:1005C0003091C00189819A8131111DC06623B9F033
:1005D0002223A9F00E947316182F682F89819A810F
:1005E0000E94191669817A81812F0F900F900F90C8
:1005F0000F900F90DF91CF911F910C9441040E94B6
:100600004816182FEFCF0E94731669817A81EDCFBB
:10061000FC01262F408151816281738184810C9479
:10062000D502CF93DF93EC0160E00E940803BE0186
:10063000DF91CF910C94D302FF920F931F93CF932E
:10064000DF93E82FF0E0E05BFD4FF490C82FC695F4
:10065000C695C695D0E0FE01E052FD4F049187702B
:1006600010E0082E02C0159507950A94E2F7017074
:100670001127C053DD4FFE01C491D0E002C0D595D3
:10068000C7958A95E2F7C170DD270115110519F0AC
:1006900081EE0E94A40D209719F086EE0E94A40D11
:1006A0008F2D0E948C0ECD2B19F086EE0E94360EF7
:1006B000012B41F081EEDF91CF911F910F91FF90BF
:1006C0000C94360EDF91CF911F910F91FF900895FA
:1006D000EF92FF920F931F93CF93DF93EC01162FAE
:1006E0000AE08881882309F454C0813009F04EC0A3
:1006F0008981813099F47E0122E0E20EF11C8A8129
:100700000E948C0EE7012196812F815050F3EFE972
:10071000FFE03197F1F700C00000F7CF823041F4DD
:100720007E0182E0E80EF11C8A810E94A40DEACFCE
:10073000833041F47E01E2E0EE0EF11C8A810E94DA
:10074000360EE0CF843011F02196DDCF2A8122963B
:1007500090E080E0AE014F5F5F4F2053330B2A30B3
:10076000310548F0019778F2EFE9FFE03197F1F7B2
:1007700000C00000F7CF089FB001099F700D112441
:10078000C901860F971F2981EA01E4CF0E941C034B
:10079000BACFDF91CF911F910F91FF90EF90089505
:1007A00060E00C9468030E94BA17811102C00E9495
:1007B00057180C945E020C94550608950C94DD03B2
:1007C00081E008950C94E003CF93C82F0E94DE03CC
:1007D0008C2FCF910C94E2030E9448110E9460027A
:1007E0002FEF84E39CE0215080409040E1F700C06F
:1007F00000000C9472190F931F93CF93DF93EC01B9
:1008000061E00E9408038C01BE010E94D00288238F
:1008100059F1BE01C8010E94B60A882329F1BE0120
:10082000C8010E949A088823F9F0BE01C8010E94FD
:10083000EC088823C9F0BE01C8010E94110A882370
:1008400099F08A81882339F001158CE5180751F059
:100850000E3D1C4579F0CE01DF91CF911F910F9194
:100860000C94CC020E94EC0380E0DF91CF911F91A9
:100870000F9108950E945718F7CF90E080E00895F7
:100880000895972F70E027E0929F600D711D11244D
:10089000FB0196E4899FE00DF11D1124EE0FFF1F6F
:1008A000E455FF4F859194910895FC01EE0FFF1FD1
:1008B000E051FD4F859194910895CF93DF930E946D
:1008C00041040E947505EC018115904508F043C074
:1008D000C11580E4D80708F0C0C0C83ED10528F58E
:1008E000C03ED10508F0A0C0C83AD10580F4C53A91
:1008F000D10508F092C0C130D10509F495C020F0AF
:10090000C430D10508F090C0D0E0C0E08DC0CF3B2E
:10091000D10508F48DC0CE01805C9109C03CD105A1
:1009200098F30E945504EC017FC0C11520E2D20764
:1009300050F4C11581E0D80708F076C0C03FD1055A
:1009400018F3D06571C0C11520E3D20708F07BC051
:10095000CE019F70E6CFC11585E5D80760F5C115BA
:1009600024E5D20708F0A7C0C11582E5D80750F4E6
:10097000C11521E5D20708F473C0DC2FCC27C16F65
:10098000D06A52C09C2F969596959E01237033276E
:10099000C115D34508F080C0C1E0D0E002C0CC0F43
:1009A000DD1F2A95E2F720E2929FC0011124C82B97
:1009B000D92BDC6839C0C11529E5D207A8F4C115C7
:1009C00088E5D80708F07CC0C11526E5D20708F0F5
:1009D0009BCF8C2F0E941006C82FD0E0DC2FCC2795
:1009E000CC27DF71D06220C0C1158AE5D80708F492
:1009F0006CC0CE0190568115904208F085CF8D2FA6
:100A00008F710E941006DD27D06290E0982F882712
:100A100088279F71C82BD92B07C0C55AD0E0C15B6E
:100A2000DE4FC881D0E0D064CE01DF91CF91089530
:100A3000C85AD0E0CC0FDD1FCF5DDE4F0990D881C2
:100A4000C02DD464F1CFCE019927D3FF03C0EC01B0
:100A5000D86CEACFEC01D06CE7CFDF70D06AE4CF7E
:100A6000CE01F4E096958795FA95E1F783709C2F77
:100A7000937021E030E002C0220F331F9A95E2F715
:100A80003C68382BC695C695C37080E2C89FE001CC
:100A90001124C22BD32BC8CFC1E0D0E002C0CC0FB1
:100AA000DD1F2A95E2F720E2929FC0011124C82B96
:100AB000D92BDA68B9CFDC2FCC27C46FD06AB4CF7A
:100AC000DC2FCC27C06FD06AAFCF8C2F8F700E94E5
:100AD000100634E0D695C7953A95E1F7CF70D0E08F
:100AE000DC2FCC27D069C82B9FCF82389105B1F17C
:100AF000B0F48133910509F471C048F4893291054D
:100B000009F467C08A32910509F46DC008958533F0
:100B1000910509F459C08933910501F10895833E87
:100B20009105A9F138F4803E9105F9F0823E9105D6
:100B300049F10895863E9105A9F1873E9105C9F1D5
:100B4000843E910519F520916F0221FF1FC080910D
:100B50006E0284FD14C087EE90E0089520916E022D
:100B60002370A1F080EE90E0089520916E0220FDA8
:100B70003FC030916F0230FF09C024FF3CC090E0BD
:100B800080E0089520916E0222FDF7CF0895209114
:100B90006E0222FD33C030916F0230FDE3CF24FDA1
:100BA000EECFF4CF20916E0223FFF0CF24FDE7CFEC
:100BB000D2CF20916E0223FD24C030916F0231FF0D
:100BC000EECF84EE90E0089520916E0225FD1CC0CA
:100BD000089520916E0225FD1AC0089520916E029D
:100BE00026FD18C0089520916E0226FD16C00895B6
:100BF00089E390E0089583EE90E0089582EE90E01E
:100C0000089586EE90E0089589E290E0089585E3E6
:100C100090E008958AE290E0089581E390E0B6CFF5
:100C200090916E0292FF06C0282F28712830F9F4A7
:100C3000877F846093FF06C0282F28712831F1F444
:100C4000877E846120916F0220FF06C0382F3871A3
:100C50003830D9F4877F816021FF06C0282F2871A2
:100C60002831D1F4877E816194FD877E0895282FF5
:100C700024712430F9F68B7F8860DCCF282F247113
:100C8000243101F78B7E8861DDCF382F317131300F
:100C900019F78E7F8860E0CF282F2171213121F74D
:100CA0008E7E8861E1CF089508950C945406E82F54
:100CB000F0E0E25AFD4F80810895089580EA8A9518
:100CC000F1F7089508950E94BD0780910001809179
:100CD000000195E0811190E09093690285E0891B05
:100CE00080936802A9E5B1E061E070E08D91E82FA2
:100CF000E295EF70F0E041A18F709B0101C0220FDF
:100D00008A95EAF7922F9095942391A382A1822B42
:100D100082A381E0AE35B80749F7A2E5B1E061E012
:100D200070E08D91E82FE295EF70F0E041A18F70B7
:100D30009B0101C0220F8A95EAF7922F9095942388
:100D400091A382A1822B82A381E0A935B80749F73C
:100D5000E4E5F2E0AEE5B2E08EE592E011921D929C
:100D60008E179F07D9F785E00E9468070E94D3037A
:100D70000C94C7070E949E078823F9F080916802AF
:100D800090E0825A9D4F0E94DA07811113C0809132
:100D90009A018F5F80939A01863050F0E09168024B
:100DA000F0E0E25AFD4F1082118212821382148207
:100DB0000C94DB0310929A01FBCF8091690290E0C2
:100DC000825A9D4F0E94F3070C9462068F929F9265
:100DD000AF92BF92CF92DF92EF92FF920F931F9349
:100DE000CF93DF9309E511E084E5A82E82E0B82EC9
:100DF000912CCC24C394D12CF80181918F01C82F60
:100E0000C295CF70D0E099A18F70760101C0EE0C31
:100E10008A95EAF7892F8E2989A38AA18E2C80943E
:100E200088218AA30E945E06E2E5F1E050E040E0FE
:100E300020E03191A32FA295AF70B0E090968C91F5
:100E400090E03F7002C0959587953A95E2F780FD56
:100E50003BC08C2D042E01C0880F0A94EAF7282B82
:100E60004F5F5F4F4730510521F789A1882289A242
:100E70008AA1E82AEAA2F50181915F01281731F1E0
:100E80003197208381E0982AF1E00E351F0709F0A1
:100E9000B3CF6091690270E0625A7D4F292D45E021
:100EA00084E592E00E9469070E94BA06892DDF91CD
:100EB000CF911F910F91FF90EF90DF90CF90BF9057
:100EC000AF909F908F90089580E0C9CF80E0DBCFF6
:100ED0000895FF920F931F93CF93DF938C01F62E0B
:100EE000D72FC42F222349F081E080939D010E94D7
:100EF000311990939C0180939B0180919D018823DF
:100F0000A1F080919B0190919C010E943D19069750
:100F100060F0EF2DFD2FD801D0E0CD01801B910BAB
:100F20008C179D0744F010929D01DF91CF911F9186
:100F30000F91FF9008958D918193EFCF80919E0145
:100F4000811110C08091D80080618093D8008AE11F
:100F50008A95F1F700C08091D90080FD0AC082E037
:100F600080939E0181E090919E01913009F080E094
:100F7000089581E0F5CF0C949E070E94BB078093F3
:100F800000010E949E0781110C94CE0708950E94D3
:100F90009E07811102C00C94D407089561E070E0AF
:100FA00081E091E00C947C0B61E070E081E091E0E5
:100FB0000C94830BCF93DF93D82FC92F0E941D0C65
:100FC000009779F4ED2FFC2FDC01A056BE4F2C9139
:100FD0002193019685309105B9F781E0DF91CF919A
:100FE000089580E0FBCF30E020E0FC014191CF018B
:100FF000F901E056FE4F40832F5F3F4F253031050A
:10100000A1F70895AF92BF92CF92DF92EF92FF9235
:101010000F931F93CF93DF937C015B01C42FD22FDB
:10102000FC0182818823F9F04093A7010E943119C5
:101030009093A6018093A50180E28C0F883008F080
:101040006EC0C77081E001C0880FCA95EAF7DF91D2
:10105000CF911F910F91FF90EF90DF90CF90BF90B5
:10106000AF900C949F0E1091A701141340C0809173
:10107000A5019091A6010E943D196C01B701C5011F
:101080000E94E713C816D90690F5C0E2CD0F1D17D0
:10109000B9F080E2810F883040F4177081E001C020
:1010A000880F1A95EAF70E94A60EC83058F581E01D
:1010B0009D2F977001C0880F9A95EAF70E949F0EA6
:1010C000802F0E948C0EC83050F5D77081E001C08F
:1010D000880FDA95EAF7DF91CF911F910F91FF907A
:1010E000EF90DF90CF90BF90AF900C94A60E80E26F
:1010F0008C0F8830A0F4C77081E001C0880FCA95BA
:10110000EAF7E9CF802FDF91CF911F910F91FF90E8
:10111000EF90DF90CF90BF90AF900C948C0EDF914A
:10112000CF911F910F91FF90EF90DF90CF90BF90E4
:10113000AF9008950F939C01CB01233F4CE53407FA
:1011400059F1A8F4283DFCE53F0701F1293D4CE5A4
:101150003407D1F1273D3C4591F406E221EE41EE02
:1011600067ED7CE50E94020880E00F910895253F1D
:10117000FCE53F07E9F0B0F0263F3C45F9F0FC0103
:101180008281882339F11092A701EFCF07E225EE83
:1011900045EE68ED7CE5E6CF06E221EE40EE63EF3A
:1011A0007CE5E0CF07E225EE44EE64EF7CE5DACFA4
:1011B00006E221EE42EE65EF7CE5D4CF07E225EEB4
:1011C00046EE66EF7CE5CECF08E221E045EE69ED24
:1011D0007CE5C8CF81E0C9CFCF93DF93EC01FB0161
:1011E0008281882309F41BC1C230FCE5DF07C0F10E
:1011F000C6319CE5D90730F09E012A5F3C45293075
:10120000310570F50E94CD1790936F0280936E02A6
:10121000C031ECE5DE0709F4CFC008F057C0C83094
:101220008CE5D80709F4B2C088F5C430ECE5DE07D8
:1012300009F4A2C0C0F4C2308CE5D80709F496C006
:1012400080916E028260C330DC4509F492C08091C7
:101250006E0290916F020E94DB170E94481180E09D
:10126000DF91CF91089580916E028061C630ECE5E8
:10127000DE0709F47EC080916E028860C730DC45CD
:1012800008F477C080916E02806273C0CC308CE528
:10129000D80709F489C058F4CA30ECE5DE0709F430
:1012A0007FC008F477C080916E028E7F62C0CE301E
:1012B0008CE5D80709F47CC080916E02CF30DC4504
:1012C00008F485C080916E028F7E53C0CB3FECE561
:1012D000DE0709F455C020F5C3318CE5D80709F4C1
:1012E00073C078F4C131ECE5DE0709F469C0C2319E
:1012F000DC4509F0ACCF0E94481180916E028F77D7
:1013000038C0C5318CE5D80709F468C008F47CC042
:1013100080916F02CA3FDC4509F099CF816033C0EC
:10132000CF3FFCE5DF0709F454C088F480916F02D9
:101330008D7FCD3F9CE5D90731F180916F02CE3F83
:10134000DC4508F449C080916F028260E7CFC1306C
:10135000FDE5DF0709F461C008F44CC080E0C2304D
:10136000DD4509F074CF0E94591871CF80916E024B
:10137000816080936E026BCF80916E028460F9CFA2
:1013800080916F02826080936F0261CF80916E02C4
:101390008064EFCF0E94481180916E028068E9CF8F
:1013A00080916E028860EACF80916E028D7FE1CFDE
:1013B00080916E02877FDDCF80916E028F7DD9CFC5
:1013C00080916E028F7BD5CF80916E02877F8B7F5D
:1013D000D0CF80916F028D7F8E7FD5CF80916E02AE
:1013E00082FB992790F921E0922790FB82F990FBEC
:1013F00083F9BFCF80916F02982F909591708E7F67
:10140000892B90FB81F9BFCF0E94481190916E0209
:10141000892F97FB87F98058ACCF81E0A4CF81E07A
:101420001FCFCF93DF93EB0186319C4511F50E94CE
:1014300008179A81992399F08A7A91E009F490E04B
:101440009093A801811109C089E20E94E3160E94CD
:10145000571780E0DF91CF91089585E3F6CF809113
:10146000A801811104C089E20E94EA16F0CF85E349
:10147000FBCF81E0EFCF8091A9019091AA01892B48
:10148000E1F08091AB019091AC010E943D19209157
:10149000090130910A012817390780F48091A901C8
:1014A0009091AA0192600E94C2021092AC01109227
:1014B000AB011092AA011092A90108958091A9018F
:1014C0000E948C0EF2CFCF93DF93EC010E94311972
:1014D0009093AC018093AB01D093AA01C093A90172
:1014E000DF91CF91089580910B01882321F0109214
:1014F0000B010C943B0A81E080930B01089510923C
:101500000B010C943B0A0F931F93CF93DF93CDB73E
:10151000DEB728970FB6F894DEBF0FBECDBF80911F
:101520000A018F93809109018F9383E691E09F9345
:101530008F931F9288E08F938E010F5F1F4F1F9331
:101540000F930E942823C8010E94D0030FB6F8947D
:10155000DEBF0FBECDBF28960FB6F894DEBF0FBE1C
:10156000CDBFDF91CF911F910F9108951F93CF931E
:10157000DF93EC01FB011281112309F45AC0843678
:10158000910541F0F8F48B32910521F0A8F404970D
:101590008497A8F40E943B0A80910B018823B9F13B
:1015A0000E940817811133C0CE010E94630A82E0B5
:1015B0000E94A21710E02BC08D970C9758F30E9441
:1015C0003B0A25C089319C4589F1CA318CE5D80791
:1015D00088F4C731ECE5DE0719F18091090190919B
:1015E0000A010597C831DC4551F790930A018093B1
:1015F00009010DC0CB318CE5D80771F030F0CC314A
:10160000DC45E9F60E947F0A02C00E94730A812F1E
:10161000DF91CF911F91089581E080930B01F7CF67
:101620008091090190910A010596DFCF0E94830AFB
:10163000EECF0E943B0A11E0EACF8EE1489B02C048
:101640008150E1F7489BFECF0895589880E28A9533
:10165000F1F7589A0895FC013BE03A95F1F798E0CC
:1016600020E080E031E040E14A95F1F7880F489BA7
:1016700002C08160232742E04A95F1F7000040E173
:101680004A95F1F7915079F790E19A95F1F799B170
:1016900032E03A95F1F7000040E14A95F1F7917098
:1016A00092272081920F90830895EF92FF920F93DB
:1016B0001F93CF93DF931F92CDB7DEB719828C01B2
:1016C0007C01E60EF11C0E151F0561F481E0998185
:1016D000911180E00F90DF91CF911F910F91FF90BA
:1016E000EF9008950E941D0BCE0101960E942B0BD6
:1016F000F80181938F01E7CF9093AE018093AD0104
:10170000509A589A08959093AE018093AD015098E5
:10171000589AE89AE9E6F0E080818C7F808308950A
:101720006150770B91E001C0990F6A95EAF720E0CC
:1017300031E0911108C0222391F0589A80E28A95F5
:10174000F1F758980895492F482339F0589A2327DC
:1017500040E24A95F1F79695ECCF5898F9CF589812
:10176000EDCFFF920F931F93CF93DF93EC018C018A
:10177000060F111DC017D10731F4DF91CF911F91D2
:101780000F91FF900895F9900E94250B68E08F2D2E
:101790000E94900BEFCF1F920F920FB60F92112461
:1017A0002F933F934F935F936F937F938F939F9369
:1017B000AF93BF93CF93DF93EF93FF935898509AD3
:1017C000C091AD01D091AE016D81662321F08E8173
:1017D0009F810E94B10B0E94250B80E18A95F1F751
:1017E00058985098589A80E18A95F1F76A81662353
:1017F00009F18B819C810E94550BE881F981882336
:1018000011F088E001C082E080830E941D0BFF91EF
:10181000EF91DF91CF91BF91AF919F918F917F9188
:101820006F915F914F913F912F910F900FBE0F904D
:101830001F901895E881F981E4CFCF93DF93C09191
:10184000AD01D091AE01F894509A589885E08A95F0
:10185000F1F700005098589A80E28A95F1F7489B7A
:101860000CC0509A589AE881F98181E0808378947D
:1018700081E090E0DF91CF9108956D81662381F042
:101880008E819F810E94550B81110AC0509A589AEF
:10189000E881F98182E08083789482E090E0EACF69
:1018A0000E941D0B80E28A95F1F75898509A80E1CA
:1018B0008A95F1F76A81662321F08B819C810E94D1
:1018C000B10B0E94250BE881F9811082789490E099
:1018D00080E0D0CF9093B4018093B3010895E0915C
:1018E000B301F091B401309721F00190F081E02D27
:1018F000099480E00895E091B301F091B40130972C
:1019000021F00280F381E02D09940895E091B30164
:10191000F091B401309739F022E0DC012C9304807F
:10192000F581E02D099408952091B1013091B20123
:101930002817390771F09093B2018093B101E091BB
:10194000B301F091B401309721F00680F781E02DCA
:10195000099408952091AF013091B00128173907FB
:1019600071F09093B0018093AF01E091B301F091D9
:10197000B401309721F00084F185E02D0994089599
:1019800085B7806885BF85B7806885BF089508954D
:1019900008950C94C70C08950C94CB0C0E94C00CB5
:1019A0000E94C80C0C94C90C0C949E070E94281924
:1019B0000E9463060E9483190C94CC0CBF92CF92B4
:1019C000DF92EF92FF920F931F93CF93DF93CDB7E8
:1019D000DEB72A970FB6F894DEBF0FBECDBF0E94C8
:1019E000E6060E94D40C882309F45EC086EBC82E5C
:1019F00081E0D82E10E000E0B02E802F0E94570624
:101A0000E82EF601F1906F01F81609F447C08091B5
:101A10003B0281FD0E945D069F2D9E2580E0FF24F4
:101A2000F394292F2F21B1F18E83BF82EF2081E023
:101A300009F480E088870E9431198160782F9A87A5
:101A400089874E815F8168858A850E94750DF801BE
:101A5000EA54FE4F8081F826F0820E94321B0E94D9
:101A60006F0C9091B501891781F10E946F0C8093E2
:101A7000B5012A960FB6F894DEBF0FBECDBFDF9139
:101A8000CF911F910F91FF90EF90DF90CF90BF907B
:101A90000C94E4038F5FFF0C873019F60F5F1F4F24
:101AA0000A30110509F0A8CF8FEF89838A831B8242
:101AB0000E9431198160782F9D838C8349815A81DE
:101AC0006B818D810E94750DC8CF2A960FB6F89450
:101AD000DEBF0FBECDBFDF91CF911F910F91FF9061
:101AE000EF90DF90CF90BF900895CF93DF93CDB765
:101AF000DEB72B970FB6F894DEBF0FBECDBF4F8376
:101B0000588769877A878B871E821D8285E0FE0150
:101B10003796DE01119601900D928A95E1F7498181
:101B20005A816B817C818D819E812B960FB6F894B2
:101B3000DEBF0FBECDBFDF91CF910C94EA13FC0145
:101B4000808191810C94B516CF93C82F882309F416
:101B50008BC08238C1F40E946F0C81FD85C089E37F
:101B60000E94E3160E9457172FEF81EE94E0215058
:101B700080409040E1F700C0000089E30E94EA162F
:101B8000CF910C9457178338A1F40E946F0C80FDFD
:101B90006BC083E50E94E3160E9457172FEF81EE7A
:101BA00094E0215080409040E1F700C0000083E5C0
:101BB000E5CF8438A1F40E946F0C82FD55C087E404
:101BC0000E94E3160E9457172FEF81EE94E02150F8
:101BD00080409040E1F700C0000087E4CFCF8CEF59
:101BE0008C0F813A90F46C2F80910C0190910D0133
:101BF0000E946A18882329F08C2F0E94EA160E94FE
:101C000057178C2F0E94E316BBCF80E28C0F8830D1
:101C100048F4C77081E001C0880FCA95EAF70E94B6
:101C20000B17AECFEBE5EC0FE33040F4F0E0EA56F3
:101C3000FE4F808190E0CF910C94940CE8E5EC0F7E
:101C4000E73150F4F0E0EE0FFF1FE859FE4F8081BE
:101C50009181CF910C94AA0CC03F30F08C2F0E9440
:101C6000281ACF910C94141BCF910895882309F45E
:101C700052C0823871F40E946F0C81FF4CC089E31E
:101C80000E94E3160E94571789E30E94EA160C94FB
:101C90005717833859F40E946F0C80FF3CC083E5CE
:101CA0000E94E3160E94571783E5EFCF843859F45A
:101CB0000E946F0C82FF2FC087E40E94E3160E94EF
:101CC000571787E4E2CF9CEF980F913AF0F290E239
:101CD000980F983050F4877091E001C0990F8A9561
:101CE000EAF7892F0E941117D2CF9BE5980F933006
:101CF00020F490E080E00C94940C98E5980F9731D4
:101D000020F490E080E00C94AA0C803F20F00E9428
:101D1000901A0C94141B0895CF93C82F0E94A40D01
:101D2000C93349F42FEF87EE93E021508040904073
:101D3000E1F700C000008C2FCF910C94360E882361
:101D400021F00E940B170C9457170895882321F057
:101D50000E9411170C9457170895CF92DF92EF92BB
:101D6000FF920F931F93CF93DF936C01D62FC72F52
:101D7000FC01058102950F70128111110E942A1732
:101D80000E940117E82E882391F0112351F18C2F26
:101D9000807F803421F080E28D0F883010F182E066
:101DA0000E94A2170E94011791E0E82EE926FC2E5E
:101DB000F2949FE0F922EF2DF0E0EF51F14F0C94F7
:101DC0000E23F30EF30E400F400F920FB30F990F37
:101DD000990FBE0F4D105E105E10C510990F990F30
:101DE000CE10E12CE4CF0C2F0F70C07F11F00295C4
:101DF000007F1123A9F0002359F080E28D0F883075
:101E000010F0D11109C0802F0E940B170E945717A4
:101E10008D2F0E94A40D14C0802F0E941C17F6CF96
:101E20008D2F0E94360E002359F080E28D0F8830EE
:101E300010F0D11121C0802F0E9411170E94571756
:101E4000EE2009F4B2C10E94FD1680FDAEC1F6017C
:101E500012820E94F7160E947D15C6010E94F5109D
:101E60000E94F716DF91CF911F910F91FF90EF9095
:101E7000DF90CF900C949E15802F0E942217DECF0A
:101E8000FC2FFF70FF2EC07FC03219F0F29480EF5C
:101E9000F822DD2369F0D13049F1112391F10023BB
:101EA00051F1F601858180FFB3CF8F70858323C008
:101EB000112381F0011106C00E943E178F290E9454
:101EC0009F0EBECF0130C1F70E943E178F290E949E
:101ED0004417B6CF011106C00E944D178F2D0E94E6
:101EE000A60EAECF013009F4ABCFF6CF112329F007
:101EF000063008F0A5CF8F2DE2CF053008F0A0CF37
:101F0000EDCF002359F3D93349F4FFEF27EE83E0F7
:101F1000F15020408040E1F700C000008D2F0E946A
:101F2000360E8ECF8C2F86958695837041F081304A
:101F300081F088EF8F0D843008F45BC081CF8D2F46
:101F40009C2F9370111102C090E080E00E94940CCD
:101F500077CF8D2F9C2F9370111102C090E080E0FD
:101F60000E94AA0C6DCF8D2F112329F00E94281AF0
:101F70000E94141B65CF0E94901AFACF8C2F837099
:101F800009F045C0111135C04D2F42954695477057
:101F9000440F440F0D2F0F7010E030E020E0042EAE
:101FA00004C0000F111F221F331F0A94D2F760E0F4
:101FB00070E0CB01D4FF0FC06FE070E080E090E0F4
:101FC00004C0660F771F881F991F4A95D2F7609546
:101FD000709580959095602B712B822B932BC695D5
:101FE000C695C370C23069F078F4C13039F00E94F0
:101FF0002F150E946F0C0E94E40322CF0E941D1532
:10200000F8CF0E944115F5CF0E941B15F2CF86959F
:10201000112311F08C2F8170882359F34D2F429595
:1020200046954770440F440F0D2F0F7010E030E0BD
:1020300020E0042E04C0000F111F221F331F0A943A
:10204000D2F760E070E0CB01D4FF0FC06FE070E02A
:1020500080E090E004C0660F771F881F991F4A95A3
:10206000D2F76095709580959095602B712B822B9F
:10207000932BC695C695C370C23049F058F4C13051
:1020800019F00E94F415B5CF0E94E215B2CF0E945C
:102090000616AFCF0E945715ACCFCF70112339F081
:1020A0008C2F0E947D158D2F0E949F0EA2CF8D2F09
:1020B0000E94A60E8C2F0E949E159BCFD23F99F1B5
:1020C00070F4D03FD9F0D13F39F1112309F449C060
:1020D000002309F443C08D2F0E94A40D2ACFD33FC3
:1020E00049F1D43F91F7112379F1CF718C2F0E94E0
:1020F0007D1563E08C2F0E948D171BCF112341F0BB
:10210000053008F016CF8C2F8F710E94C11511CFAA
:10211000063008F00ECFF7CF8C2F8F71112339F0D6
:102120000E947D1506CF8C2F8F711123C9F30E9459
:102130009E15FFCE112329F08C2F8F710E946815F8
:10214000F8CE0E946315F5CE81E00E94A2170230FE
:1021500008F4EFCE82E00E94A217EBCE8C2F8F7195
:10216000DFCF002379F0D93349F49FEFE7EEF3E0B6
:102170009150E040F040E1F700C000008D2F0E9438
:10218000360ED7CE8C2F8F71D2CF4C2F4F706D2F34
:10219000C6010E943D040E94931452CE4C2F4F70F2
:1021A0006D2FC6010E9440044BCEDF91CF911F914D
:1021B0000F91FF90EF90DF90CF9008950F931F93B2
:1021C000CF93DF93EC01688179818A810E94BF16E9
:1021D0008C010E9418160E941A15B801CE01DF91D9
:1021E000CF911F910F910C94AD0ECF93DF93EC0123
:1021F000988189812B813C81232B39F08F3F19F401
:1022000081E09F3F19F080E001C081E080FD19C0AE
:10221000CE010E94FB0381110CC00E94011788238C
:1022200081F08A81882369F082E0DF91CF910C945C
:10223000A217CE010E94DE10CE01DF91CF910C9447
:102240001103DF91CF910895882321F00E941C177C
:102250000C9457170895882321F00E9422170C949C
:10226000571708950E942A170E943B170E9457177C
:102270000E94431C0E94141B90E080E00E94940C7A
:1022800090E080E00C94AA0C0E94F1160C9432119C
:102290000E9419170C944411E92FE295EF70E25057
:1022A000EE30E0F4F0E0E95AFE4E0C940E23651196
:1022B00065116E116E1170116E116E116E11651136
:1022C000651175116E116E117511803F19F020F4B2
:1022D000883E20F481E00895843FE1F380E0089592
:1022E000883EC0F3813FD1F7F5CF93FB882780F973
:1022F00008950E94B5160C944C11CF93DF9300D033
:1023000000D01F92CDB7DEB70F900F900F900F90B7
:102310000F90DF91CF910895CF93DF9300D000D03D
:1023200000D0CDB7DEB726960FB6F894DEBF0FBE4D
:10233000CDBFDF91CF9108951F93CF93DF93C091CD
:10234000C10116E08091C2018C1304C0DF91CF91CE
:102350001F910895D0E01C9FF0011D9FF00D1124E6
:10236000ED53FE4F4081518162817381848195815B
:102370000E948C112196C770E5CF4091F3015091D6
:10238000F4016091F5017091F6018091F70190914F
:10239000F8010C948C110F931F93CF93DF938091CE
:1023A000F801807FB9F48091F501882399F080913C
:1023B000C1011091C2016091F3017091F401C091CB
:1023C000F601D091F70121E06F3F09F020E006E02F
:1023D000181305C0DF91CF911F910F91089531E03F
:1023E000209721F0322F7F3F09F030E090E030FD60
:1023F00033C0089FF001099FF00D1124DF01AD5398
:10240000BE4F11963C911197371326C03C9136135D
:1024100023C012963C91129731111EC013964D9114
:102420005C914C1B5D0B48375105B0F48091F8016D
:102430008F7080618093F801E853FE4F80818F7028
:102440008061808383EF91E00E94F510DF91CF914E
:102450001F910F910C949C1101968770B9CF9F9298
:10246000AF92BF92CF92DF92EF92FF920F931F93A2
:10247000CF93DF93CDB7DEB761970FB6F894DEBF89
:102480000FBECDBF8C0185E0F801DE011D960190E5
:102490000D928A95E1F7F80140815181E280909197
:1024A000F3016091F4012091F6013091F70181E090
:1024B0002115310531F06F3F19F481E09F3F09F09C
:1024C00080E0F82FF1709F2E80FD65C1F801A38098
:1024D000B48083EFC82E81E0D82EF090F501F5018D
:1024E000E21BF30BFF2009F404C18091F801782F5F
:1024F000707FE837F10508F0BAC0711181C0FE2C79
:10250000651324C0941322C0E11020C08F70806135
:102510008093F8010E94BD11C6010E94F5108091C0
:10252000F801F80185838F2D61960FB6F894DEBF10
:102530000FBECDBFDF91CF911F910F91FF90EF9014
:10254000DF90CF90BF90AF909F90089581E0AB282F
:1025500031F05F3F19F481E04F3F09F080E080FDEA
:1025600023C081E08E25F82FF170DF2E80FF3EC062
:102570008091C1012091C20136E0821317C04D87BE
:102580005E878D859E850E94B516292F22952F7016
:10259000223000F1243028F59F7001F1F801958177
:1025A000907FE1F4F92CBFCF80E0DDCF90E0389F41
:1025B000F001399FF00D1124ED53FE4F6181561348
:1025C00006C06081461303C062816E110FC0019680
:1025D0008770D3CF9F7011F0882321F3805E8830FD
:1025E00008F3C8010E94F5109D2CDCCFEE2009F401
:1025F0009ACF8091F80181608093F801F12C93CFFC
:10260000651306C0941304C0F801EE2009F48DC0D0
:102610004D875E878D859E850E947911882319F1EB
:10262000EE2009F18091F801803270F02091F301E1
:102630003091F40138872F831986BB86AA868C8750
:10264000CE0107960E94F51086E0F801A3EFB1E0F5
:1026500001900D928A95E1F70E94CB110E94BD1165
:10266000FF24F39460CFC8010E94F510F9CF7111D7
:1026700013C07A2DB98AA88A6E2D89890E947D118E
:1026800083EF91E00E94F51086E0F60111928A95A1
:10269000E9F70E94BD11B2CF65130FC094130DC0AE
:1026A000E1100BC0F8018583C8010E94F51086E097
:1026B000F60111928A95E9F736CF4D875E878D85B1
:1026C0009E850E947911882371F2EE2061F280913B
:1026D000F801803208F4B8CF2091F3013091F40171
:1026E0003A8329831B82BD82AC828E83CE01019600
:1026F000A9CFE837F10508F041C0FE2CEE2009F41F
:10270000B2CF65132AC0941328C08091F80180FDD0
:102710001BC0982F907FC1F0F8018583903F31F066
:10272000982F907F905F8F70892B8583C8010E94BE
:10273000F51086E0F801A3EFB1E001900D928A95C3
:10274000E1F70E94BD11EFCE86E0F801A3EFB1E002
:1027500001900D928A95E1F7E6CE4D875E878D85D3
:102760009E850E94791181116FCF8091F80181605F
:102770008093F801C8010E94F510D5CE7A2DB98A50
:10278000A88A6E2D89890E947D1186E0F60111923A
:102790008A95E9F7D6CFEE2009F465CF4D875E879D
:1027A0008D859E850E947911F82E882309F45BCFD0
:1027B00086E0F801A3EFB1E001900D928A95E1F770
:1027C00083EF91E00E949F0D0E94CB11BACF88E762
:1027D00090E008951F93CF93DF93CDB7DEB72C978A
:1027E0000FB6F894DEBF0FBECDBF4F835887698701
:1027F0007A878B879C87CE0107960E942F128823A9
:1028000009F442C09F8188852A853B85232B39F0B6
:102810008F3F19F481E09F3F19F080E001C081E013
:1028200080FD08C04F81588569857A858B859C8598
:102830000E948C1116E08091C1019091C20189170C
:1028400009F467C0819FC00111248D539E4F0E94DF
:102850002F12882309F45DC0E091C1011E9FF00191
:102860001124ED53FE4F4081518162817381848137
:1028700095810E948C118091C10190E00196877032
:1028800099278093C101D7CF86E0FE013796DE01FC
:10289000119601900D928A95E1F79F8188852A858E
:1028A0003B85232B39F08F3F19F481E09F3F19F0CE
:1028B00080E001C081E080FDBDCF2091C20130E009
:1028C000C9010196877099274091C10148171906DF
:1028D00099F096E0929FD001939FB00D1124AD53D3
:1028E000BE4FFE01319601900D929A95E1F78093CB
:1028F000C2010E949C119ECF0E9448111092C201F9
:102900001092C10186E0E3EFF1E0DF011D928A95AC
:10291000E9F72C960FB6F894DEBF0FBECDBFDF915E
:10292000CF911F910895EF92FF920F931F93CF9332
:10293000DF938C01892B81F0F12CEE24E394E801E4
:102940002196F8018491843770F4843008F05FC0D8
:102950008130B1F08230A1F1DF91CF911F910F91C1
:10296000FF90EF900895853709F44CC008F43DC0FE
:102970009CE7980F903780F78F770E94360E49C0FA
:102980000E5F1F4FFE01849190E2980F983060F423
:102990008770FE2D01C0FF0F8A95EAF78F2F0E94E6
:1029A0002D170E94571702C00E94A40D8F2D815031
:1029B00030F2EFE9FFE03197F1F700C00000F7CF08
:1029C0000E5F1F4FFE01849190E2980F983050F4F3
:1029D0008770FE2D01C0FF0F8A95EAF78F2F0E94A6
:1029E0003317DFCF0E94360EE1CF0E5F1F4FFE017F
:1029F000C491C150D8F28FE99FE00197F1F700C070
:102A00000000F7CF0E5F1F4FFE01F490CFCF0E9462
:102A1000A40D8E01CBCF08950C940B150E940C15BC
:102A200060932A0270932B0280932C0290932D02C4
:102A30000C94321108950C940E150F931F9300916E
:102A40002A0210912B0220912C0230912D02602B32
:102A5000712B822B932B1F910F910C940E150F93BA
:102A60001F9300912A0210912B0220912C02309189
:102A70002D0260237123822393231F910F910C94C5
:102A80000E150F931F9300912A0210912B02209193
:102A90002C0230912D0260277127822793271F91E6
:102AA0000F910C940E150C940B150C9453150E9459
:102AB0005515609326027093270280932802909305
:102AC00029020C94321160E070E0CB010C94571590
:102AD0000F931F9341E050E060E070E08A019B019A
:102AE00004C0000F111F221F331F8A95D2F7C9019E
:102AF000B8011F910F910C9457150F931F9341E04C
:102B000050E060E070E004C0440F551F661F771F5F
:102B10008A95D2F78091260290912702A0912802EF
:102B2000B09129028A019B01082B192B2A2B3B2BE0
:102B3000C901B8011F910F910C9457150F931F9362
:102B400041E050E060E070E004C0440F551F661F94
:102B5000771F8A95D2F7CB01BA0160957095809561
:102B60009095009126021091270220912802309121
:102B7000290260237123822393231F910F910C94C8
:102B800057150F931F9341E050E060E070E004C0E0
:102B9000440F551F661F771F8A95D2F78091260232
:102BA00090912702A0912802B09129028A019B01ED
:102BB000082719272A273B27C901B8011F910F9120
:102BC0000C9457150F931F93009126021091270222
:102BD0002091280230912902602B712B822B932B9C
:102BE0001F910F910C9457150F931F93009126027C
:102BF000109127022091280230912902602371232D
:102C0000822393231F910F910C9457150F931F93B9
:102C1000009126021091270220912802309129026A
:102C200060277127822793271F910F910C945715C6
:102C3000089527E0929F800D1124982F977071E0DE
:102C400001C0770F9A95EAF786958695869525E0D7
:102C5000829FC001112450E040E0A62FB0E0FC01AB
:102C6000E40FF51FE750FE4F60819D01042E02C066
:102C7000369527950A94E2F7217021952627272378
:102C8000262720834F5F5F4F4530510541F7089558
:102C900027E0929F800D1124982F97708695869536
:102CA000869525E0829FA001112470E060E080E01D
:102CB000FA01E60FF71FE750FE4F208130E0092EA2
:102CC00002C0369527950A94E2F721703327062E25
:102CD00001C0220F0A94EAF7822B6F5F7F4F6530A5
:102CE000710531F70895BF92CF92DF92EF92FF9274
:102CF0000F931F93CF93DF938C01C0902602D09047
:102D00002702E0902802F090290280912A029091F7
:102D10002B02A0912C02B0912D02C82AD92AEA2AAE
:102D2000FB2ACFE1D0E0BC2ED701C6010C2E04C097
:102D3000B695A795979587950A94D2F780FD0EC012
:102D4000219788F7B12C8B2DDF91CF911F910F9197
:102D5000FF90EF90DF90CF90BF900895B8018C2F37
:102D60000E945D04019761F3EECFCF93DF93EC01F6
:102D70000E947316BE01DF91CF910C945D041F93E6
:102D8000CF93DF93EB019091C001992331F0CB01F8
:102D9000DF91CF911F910C94B516882379F0CB0168
:102DA0000E947316182F682FCE010E941916BE01BB
:102DB000812FDF91CF911F910C945D04CB010E9474
:102DC0004816182FF4CF682F80910C0190910D01B7
:102DD0000C94A018682F80910C0190910D010C9417
:102DE000A21880910C0190910D010C94A41880916F
:102DF0002E02859585958595089580912E02877080
:102E0000089590912E02977081E009F480E0089572
:102E100080913A02089590913A02892B80933A0268
:102E20000895982F909580913A02892380933A02D1
:102E3000089510923A02089590913902892B809357
:102E400039020895982F90958091390289238093B3
:102E50003902089510923902089590913802892B11
:102E6000809338020895982F909580913802892395
:102E700080933802089510923802089580912F02AD
:102E8000089508950C94411790912F02981721F0FE
:102E900080932F020C944217089580912F0288236B
:102EA00029F010922F0280E00C9442170895E091CF
:102EB0000C01F0910D0180913A028083E0910C01A8
:102EC000F0910D01808190913902892B8083E091EE
:102ED0000C01F0910D01808190913802892B808343
:102EE00090912F02992381F0E0910C01F0910D0156
:102EF0008081892B808380910C0190910D010E942B
:102F00005E1881110E944D1780910C0190910D0166
:102F10000C947B0C08950C948A1798E0899F90017B
:102F20001124622B60932E020E947D1580912E0247
:102F30008595859585950C948B1710922E0280E0CF
:102F40000C948B1790912E028095892380932E02EA
:102F5000282F277071F4282F082E000C330B92179E
:102F6000130639F08595859585950E949E150C94DC
:102F70009D17089590E080E00E94DE2521E08C3EC0
:102F80009E4F09F020E0822F089582E090E00C949B
:102F9000D62583E090E00C94D625CF9384E090E092
:102FA0000E94D625C82F81E290E00E94D625982F56
:102FB0008C2FCF910895CF93C92F682F84E090E094
:102FC0000E94E4256C2F81E290E0CF910C94E425DF
:102FD000AB01BC018FE090E00C94F625AB01BC0185
:102FE00083E190E00C94F62560E070E0CB010C9456
:102FF000EE1760E070E0CB010E94E8170C94F41724
:103000006CEE7EEF90E080E00E94022660E082E0BD
:1030100090E00E94E42560E083E090E00E94E425D7
:1030200010922A0210922B0210922C0210922D0262
:1030300060E084E090E00E94E42560E081E290E0BE
:103040000E94E42560E085E090E00E94E42560E0D5
:1030500086E090E00E94E4256FEF87E090E00E9418
:10306000E42540E050E0BA0188E090E00E94F625B7
:1030700060E08DE090E00E94E42540E050E0BA017D
:1030800088E190E00E94F62560E087E190E00E94F0
:10309000E42540E050E0BA018CE190E00E94F62582
:1030A00060E080E290E00E94E4250C94F9170C9413
:1030B0000018682F8EE090E00C94E425FC01329615
:1030C00097E080E0915009F4089521912223D1F3F3
:1030D0008F5FF8CF662349F0FC0132960896219164
:1030E000261729F0E817F907D1F780E0089581E065
:1030F00008959C01FC0132969FEF80E041914617B4
:1031000051F09F3F19F4411101C0982F8F5F863015
:10311000A9F79F3F09F40895290F311D97FD3A95AE
:10312000F90162830895FC013296089621912613D5
:1031300003C0DF0111971C92E817F907B9F708954A
:103140000C9479180C949318029626E0FC011192C5
:103150002A95E9F70895089508950C94AC180E94F3
:10316000AD1880917402843049F110923C0288E1DC
:1031700090E020E40FB6F894A895809360000FBE0D
:103180002093600080E00E94E4030E94AD1883B7A2
:10319000817F846083BF83B7816083BF7894889583
:1031A00083B78E7F83BF0FB6F894A8958091600097
:1031B000886180936000109260000FBE08950895AA
:1031C000CF930E94AB180E94E6060E94DF18C0E071
:1031D0008C2F0E945706811105C0CF5FCA30C1F7FE
:1031E000CF91089581E0FCCF08950C94F4180E94CB
:1031F00048110E946F0C0E94E4030C94F5181F9272
:103200000F920FB60F9211248F939F93AF93BF939A
:1032100080913C02811113C080916A0290916B02EF
:10322000A0916C02B0916D024196A11DB11D8093D9
:103230006A0290936B02A0936C02B0936D02BF91EF
:10324000AF919F918F910F900FBE0F901F90189587
:1032500082E084BD93E095BD9AEF97BD80936E00A8
:1032600008952FB7F89480916A0290916B02A09113
:103270006C02B0916D022FBF08959C014FB7F89476
:1032800080916A0290916B02A0916C02B0916D02E4
:103290004FBF821B930B089578941F920F920FB625
:1032A0000F9211248F939F93AF93BF9380916A02E3
:1032B00090916B02A0916C02B0916D020196A11DDC
:1032C000B11D80936A0290936B02A0936C02B0933D
:1032D0006D02BF91AF919F918F910F900FBE0F9094
:1032E0001F90189587E797E790930108809300084F
:1032F00088E19AE00FB6F894A895809360000FBE1D
:1033000090936000FFCF0E94BA17811102C00E9403
:1033100057180E94C51780933B020E94CD179093C7
:103320006F0280936E020E94C917682F70E090E0D0
:1033300080E00E941B156091260270912702809107
:103340002802909129020C9455158091430280FF28
:1033500012C06091130185E0689FB001112475953A
:1033600067957595679560387105A8F561157105C4
:10337000A1F1862F089581FF09C06091130185E0B6
:10338000689FB001112475956795EDCF82FF07C046
:103390006091130185E0689FB0011124E4CF209172
:1033A00042022223A9F0909112016091130185E05D
:1033B000689FB00111242917B0F6269FA001279F0E
:1033C000500D1124692F70E0CA010E94FA22CBCF60
:1033D00065E070E0CECF8FE7089581E00895809199
:1033E000430280FF0CC060910F0170E075956795F6
:1033F000759567956115710549F1862F089581FFCF
:1034000006C060910F0170E075956795F3CF6091EC
:103410000F0182FD0BC0909141029923A1F06091B0
:103420000E0180910F01961738F0682F70E0603818
:10343000710500F38FE70895899FC001112470E0A2
:103440000E94FA22F4CF61E070E0D7CF81E00895C6
:10345000803F31F40E94A519819580934702089519
:10346000813F19F40E94A519F8CF823F31F40E94E0
:10347000A5198195809346020895833F19F40E940F
:10348000A519F8CF893F29F40E94EF1980934802CB
:1034900008958A3F21F40E94EF198195F7CF8B3F61
:1034A00031F40E94EF1981958093490208958C3F71
:1034B00019F40E94EF19F8CF843F31F4809145024E
:1034C0008160809345020895853F21F480914502F3
:1034D0008260F7CF863F21F4809145028460F1CF6E
:1034E000873F21F4809145028860EBCF883F21F42B
:1034F000809145028061E5CF8D3F31F48091430298
:1035000081608093430208958E3F21F480914302AD
:103510008260F7CF8F3FB9F7809143028460F1CF8B
:10352000803FD1F48091470287FD1092470280913D
:103530004602811106C080914702811102C010929B
:10354000420280914802811106C080914902811196
:1035500002C0109241020895813F29F480914702F0
:1035600018161CF3E4CF90914602823F29F497FF8E
:10357000DECF10924602DBCF833F19F41916CCF34D
:10358000D6CF90914802893F29F4191684F61092FB
:103590004802CDCF8A3F19F497FFC9CFF8CF8B3FB0
:1035A00039F48091490287FFC2CF10924902BFCF00
:1035B0008C3F29F4809149021816BCF3B8CF843FA0
:1035C00031F4809145028E7F80934502B0CF853FD4
:1035D00021F4809145028D7FF7CF863F21F48091C1
:1035E00045028B7FF1CF873F21F480914502877F91
:1035F000EBCF883F21F4809145028F7EE5CF8D3F50
:1036000031F4809143028E7F8093430290CF8E3FAE
:1036100021F4809143028D7FF7CF8F3F09F087CF50
:10362000809143028B7FF0CF0E9431192091460296
:10363000211104C020914702222321F090934002DF
:1036400080933F0220914802211104C02091490239
:10365000222321F090933E0280933D0284E492E085
:103660000C94860CEF92FF920F931F93CF93DF93EE
:1036700000D000D000D0CDB7DEB786E0E4E4F2E0C1
:10368000DE01119601900D928A95E1F7E0904602D5
:10369000F0904702009148021091490210924602B0
:1036A000109247021092480210924902E11002C0A3
:1036B000FF2091F080913F02909140020E943D19BD
:1036C000AC0190914202992309F443C08091140106
:1036D0008417150608F44BC0011102C0112391F0A4
:1036E00080913D0290913E020E943D19AC01909163
:1036F0004102992309F47AC08091100184171506BC
:1037000008F482C08091460281110BC0809147026B
:10371000811107C080914802811103C08091490244
:1037200081110E94141B86E0FE013196A4E4B2E0F0
:1037300001900D928A95E1F726960FB6F894DEBFB8
:103740000FBECDBFDF91CF911F910F91FF90EF90F2
:103750000895209115018AE0289F900111242417D3
:10376000350708F0B9CF9F5F9093420202C09F3F98
:10377000D1F7EE2059F00E94A5199FEF1E140CF40A
:1037800091E0899F802D112480934602FF2059F0FB
:103790000E94A5199FEF1F140CF491E0899F802DC2
:1037A00011248093470230914602332309F494CFC9
:1037B00020914702222309F48FCF45EB3403C00147
:1037C0001124992359F09093460245EB240390016C
:1037D0001124332339F0309347027ECF81E0809368
:1037E0004602F3CF81E08093470276CF209111010A
:1037F0008AE0289F900111242417350708F082CF12
:103800009F5F9093410202C09F3FD1F7002359F080
:103810000E94EF199FEF10160CF491E0899F802D04
:10382000112480934802112359F00E94EF199FEF51
:1038300011160CF491E0899F802D11248093490288
:1038400030914802332309F45DCF209149022223AD
:1038500009F458CF45EB3403C0011124992359F0E2
:103860009093480245EB240390011124332339F04F
:103870003093490247CF81E080934802F3CF81E043
:10388000809349023FCF86E0E4E4F2E0DF011D923D
:103890008A95E9F710924202109241021092430277
:1038A0000895809152020895CF93DF9300D01F9224
:1038B000CDB7DEB790917402943019F589837B837C
:1038C0006A8382E08093E9008FEF9091E800815055
:1038D00095FD06C095ED9A95F1F700008111F5CFA1
:1038E0008091E80085FF0DC050E040E063E070E0AB
:1038F000CE0101960E94681E8091E8008E77809329
:10390000E8000F900F900F90DF91CF910895BC01C8
:1039100084E00C94541CBC0183E00C94541C9C0166
:1039200082E08093E9009FEF8091E800915085FD4F
:1039300006C085ED8A95F1F700009111F5CF8091D1
:10394000E80085FF0CC050E040E066E070E0C9018F
:103950000E94681E8091E8008E778093E8000895A9
:10396000CF93DF93EC0181E08093E9008FEF90919A
:10397000E800815095FD06C095ED9A95F1F700009D
:103980008111F5CF8091E80085FF14C050E040E040
:1039900068E070E0CE010E94681E8091E8008E779A
:1039A0008093E80088E0FE01AAE4B2E001900D9265
:1039B0008A95E1F7DF91CF9108958091730281118B
:1039C00009C00E94F81F0E9455208091E200846087
:1039D0008093E20008951092730208950895089567
:1039E0000C94F71842E061EC81E00E94761F42E2FD
:1039F00061EC82E00C94761F80917602833009F4AA
:103A000062C030F48130D9F1823009F49EC008954B
:103A10008A3009F48AC08B3009F470C0893009F00B
:103A200051C080917502813209F04CC080917902B9
:103A300090917A02029708F045C08091E800877F54
:103A40008093E8008091E80082FF38C08091F30005
:103A50009091F200892798278927029729F480916D
:103A6000F1008B7F813021F48091F100809352022C
:103A70008091E8008B778093E8000C94AA1F8091D6
:103A80007502813AF9F48091E800877F8093E8001D
:103A90008091790290917A02892B61F468E08AE43E
:103AA00092E070E00E94B71E8091E8008B778093CF
:103AB000E800089560E090E080E0F3CF8091740228
:103AC0008111C0CF089580917502813AD9F7809114
:103AD000790290917A02892BA9F78091E800877F7B
:103AE0008093E8008091E80080FFFCCF8091200166
:103AF0008093F1008091E8008E77BDCF80917502B0
:103B0000813201F78091790290917A02892BD1F666
:103B10008091E800877F8093E8000E94AA1F80912F
:103B20007702809320010C944811809175028132B4
:103B300049F68091E800877F8093E8000E94AA1FE1
:103B40008091780280935302089580917502813AA2
:103B500009F0B8CF8091E800877F8093E8008091DA
:103B6000E80080FFFCCF80915302C2CF84B7877FEB
:103B700084BF0FB6F894A895809160008861809307
:103B80006000109260000FBE80E890E00FB6F894DD
:103B900080936100909361000FBE0E94CE0C0E9442
:103BA000F81F0E9455208091E20084608093E2001B
:103BB00078940E94DE220E94D60C86E191E00E9459
:103BC0006A0C80917402853019F00E94DE0CF9CFE6
:103BD0000E94AF1880917202882399F30E94E01826
:103BE000882379F30E94521EECCF0C94F71D292FE5
:103BF00033272330310571F158F421303105E9F0D4
:103C00002230310511F190E080E030E020E019C071
:103C100021323105C1F122323105A9F780E490E06B
:103C20002AEE33E06115710561F081E890E029E644
:103C300033E06130710529F0E6CF82E190E027E5BD
:103C400033E0FA013183208308958BE390E02CE187
:103C500033E0F7CF99278130910579F040F0823039
:103C6000910571F0039779F6E0EFF2E002C0E8E128
:103C7000F3E0849190E09F01E4CFEAE0F3E0F9CF34
:103C8000E6EFF2E0F6CF89E090E02EE233E0611556
:103C90007105B9F289E090E027E433E06130710505
:103CA00081F2B1CF80E189BD82E189BD09B400FE16
:103CB000FDCF8091D8008F7D8093D8008091E00067
:103CC00082608093E0008091E00081FDFCCF089548
:103CD000AF92BF92CF92DF92FF920F931F93CF9339
:103CE000DF936C01EB018A010E94C91FF82E81113C
:103CF00023C00115110539F0F80180819181C81B9D
:103D0000D90BC80ED91EB12CA12C2097A9F08091F7
:103D1000E80085FD22C08091E8008E778093E8005E
:103D200001151105A1F0F80180819181A80EB91E3D
:103D3000B182A08285E0F82E8F2DDF91CF911F9167
:103D40000F91FF90DF90CF90BF90AF9008950E94A9
:103D5000C91F8823D1F2F82EEFCFF60181916F01B0
:103D60008093F1002197FFEFAF1ABF0ACECFFC017D
:103D700080917B0290917C0286179707A0F06115D5
:103D8000710529F49091E8009E779093E80090E007
:103D90006115710551F4911108C08091E80082FF0E
:103DA00035C080E00895BC01F2CF80917402882371
:103DB000C9F18530C9F18091E80083FD31C080915F
:103DC000E80082FDEACF8091E80080FFE1CF2091FA
:103DD000F3008091F200322F282F6115710519F040
:103DE0002830310558F091E02830310509F090E095
:103DF0002091E8002E772093E800CACF819180932C
:103E0000F100615071092F5F3F4FE7CF809174023D
:103E1000882341F0853041F08091E80083FFBDCFD9
:103E200081E0089582E0089583E00895FC01809187
:103E30007B0290917C0286179707A0F061157105AF
:103E400029F48091E8008E778093E80090E0611576
:103E5000710551F4911108C08091E80082FF36C0CD
:103E600080E00895BC01F2CF809174028823D1F1E3
:103E70008530D1F18091E80083FD32C08091E80067
:103E800082FDEACF8091E80080FFE1CF2091F3002E
:103E90008091F200322F282F6115710519F028301A
:103EA000310558F091E02830310509F090E080911B
:103EB000E8008E778093E800CACF84918093F10068
:103EC0003196615071092F5F3F4FE6CF80917402A8
:103ED000882341F0853041F08091E80083FFBCCF1A
:103EE00081E0089582E0089583E00895982F973047
:103EF00028F08F708093E90081E008959093E900A5
:103F0000242F762F50E0981731F07091EC0020911B
:103F1000ED005091F00021FD02C09F5FE8CF30918D
:103F2000EB003E7F3093EB003091ED003D7F30930E
:103F3000ED003091EB0031603093EB007093EC00BA
:103F40002093ED005093F0002091EE0027FDE5CF87
:103F500080E008958091750287FF13C08091E8008A
:103F600082FF06C08091E8008B778093E80004C050
:103F7000809174028111F2CF089580917402882398
:103F8000D9F38091E80080FFF8CF8091E8008E7728
:103F9000ECCF2091E4003091E50085E69091EC00B3
:103FA00090FF06C09091E80090FF06C080E0089561
:103FB0009091E80092FDFACF90917402992391F0CC
:103FC000953091F09091EB0095FD10C04091E40088
:103FD0005091E5002417350709F381509A01F1F655
:103FE00084E0089582E0089583E0089581E00895D3
:103FF0000E9466200E946E20E0EEF0E080818160E9
:104000008083E8EDF0E080818F77808319BCA7ED95
:10401000B0E08C918E7F8C9380818F7E8083109214
:10402000730208950F931F93CF93DF930E9466202E
:104030000E946E20C8EDD0E088818F7788838881C8
:104040008068888388818F7D888319BC1092740270
:1040500010927002109272021092710200EE10E043
:10406000F80180818B7F808388818160888342E032
:1040700060E080E00E94761FE1EEF0E080818E7FBC
:104080008083E2EEF0E080818160808380818860BF
:104090008083F80180818E7F80838881806188831E
:1040A000DF91CF911F910F910895E8EDF0E08081AD
:1040B0008F7E8083E7EDF0E080818160808384E003
:1040C00082BF81E0809373020C941220E8EDF0E04F
:1040D00080818E7F80831092E20008951092DA0032
:1040E0001092E10008951F920F920FB60F921124C3
:1040F0002F933F934F935F936F937F938F939F93F0
:10410000AF93BF93EF93FF938091E10082FF0BC0C9
:104110008091E20082FF07C08091E1008B7F809355
:10412000E1000E94DD228091DA0080FF19C08091B9
:10413000D80080FF15C08091DA008E7F8093DA006E
:104140008091D90080FF94C080E189BD82E189BD62
:1041500009B400FEFDCF81E0809374020E94DD1C53
:104160008091E10080FF19C08091E20080FF15C0BE
:104170008091E2008E7F8093E2008091E200806176
:104180008093E2008091D80080628093D80019BCAF
:1041900085E0809374020E94EF1C8091E10084FF0F
:1041A00029C08091E20084FF25C080E189BD82E1C1
:1041B00089BD09B400FEFDCF8091D8008F7D80932A
:1041C000D8008091E1008F7E8093E1008091E20031
:1041D0008F7E8093E2008091E20081608093E20014
:1041E00080917002882309F449C084E080937402AE
:1041F0000E94F01C8091E10083FF29C08091E200C1
:1042000083FF25C08091E100877F8093E10082E0F9
:1042100080937402109270028091E1008E7F8093EF
:10422000E1008091E2008E7F8093E2008091E200C5
:1042300080618093E20042E060E080E00E94761FAF
:104240008091F00088608093F0000E94EE1CFF9146
:10425000EF91BF91AF919F918F917F916F915F91FE
:104260004F913F912F910F900FBE0F901F90189577
:1042700019BC109274020E94EB1C72CF8091E30073
:1042800087FD02C081E0B2CF83E0B0CF1F920F92D2
:104290000FB60F9211242F933F934F935F936F9319
:1042A0007F938F939F93AF93BF93CF93EF93FF939E
:1042B000C091E900CF708091EC001092E9008091EC
:1042C000F000877F8093F00078940E948221109202
:1042D000E9008091F00088608093F000C093E900CD
:1042E000FF91EF91CF91BF91AF919F918F917F916E
:1042F0006F915F914F913F912F910F900FBE0F9053
:104300001F9018951F93CF93DF93CDB7DEB7AA9771
:104310000FB6F894DEBF0FBECDBFE5E7F2E08091A7
:10432000F100819322E0ED37F207C9F70E94FC1CEF
:104330008091E80083FF44C08091750290917602DD
:104340009A3008F03DC0E92FF0E0E755FE4D0C949F
:104350000E23B321D921E021D921E021372259228E
:10436000E021B022BD22803889F0823849F5809161
:1043700079028F70873020F58093E9008091EB00FF
:1043800085FB882780F91092E90006C080917102B0
:1043900090917202911182609091E800977F9093C2
:1043A000E8008093F1001092F1008091E8008E7790
:1043B0002DC0282F2D7F21F48823D1F0823059F190
:1043C0008091E80083FF0AC08091E800877F809396
:1043D000E8008091EB0080628093EB00AA960FB614
:1043E000F894DEBF0FBECDBFDF91CF911F9108952E
:1043F00080917702813021F7933009F080E080933B
:1044000072021092E9008091E800877F8093E800B3
:104410000E94AA1FD5CF809177028111F2CF80919F
:1044200079028F702FEF280F263050F68093E90025
:104430002091EB0020FFE5CF933031F48091EB0029
:1044400080628093EB00DDCF9091EB0090619093C0
:10445000EB0021E030E001C0220F8A95EAF72093BB
:10446000EA001092EA008091EB008860EACF8111A7
:10447000A7CF109177021F778091E3008078812B7E
:104480008093E3008091E800877F8093E8000E949A
:10449000AA1F8091E80080FFFCCF8091E300806834
:1044A0008093E30083E0111101C082E080937402E5
:1044B00087CF8058823008F083CF80917702909127
:1044C00078028C3D23E09207A1F583E08A838AE29B
:1044D00089834FB7F894DE01139620E03EE051E265
:1044E000E32FF0E050935700E49120FF03C0E295E2
:1044F000EF703F5FEF708E2F90E0EA30C0F0C7960C
:104500008D939D932F5F243159F74FBF8091E80021
:10451000877F8093E8006AE270E0CE0101960E94F6
:10452000B71E8091E8008B778093E80049CFC09652
:10453000E7CF6091790270917A02AE014F5F5F4FD1
:104540000E94F51DBC01892B09F43ACF9091E80037
:10455000977F9093E80089819A810E94161FE1CF8E
:10456000803809F02DCF8091E800877F8093E800A4
:10457000809170028093F10018CF811121CF90912A
:104580007702923008F01CCF8091E800877F8093FB
:10459000E800909370020E94AA1F80917002882305
:1045A00031F084E0809374020E94F21C09CF809164
:1045B000E30087FDF6CF81E0F5CF0895CF9380919A
:1045C0007402882399F0C091E900CF708091EC00CB
:1045D00080FD0EC080E0C82B1092E9008091E800B9
:1045E00083FD0E948221CF70C093E900CF9108958E
:1045F00080E8F1CF97FB072E16F4009407D077FDE3
:1046000009D00E94142307FC05D03EF490958195B3
:104610009F4F0895709561957F4F0895EE0FFF1F8E
:104620000590F491E02D0994AA1BBB1B51E107C032
:10463000AA1FBB1FA617B70710F0A61BB70B881F32
:10464000991F5A95A9F780959095BC01CD010895C1
:10465000AEE0B0E0EEE2F3E20C9426260D891E896E
:104660008F89988D26E02C831A83098397FF02C0D7
:1046700080E090E801979E838D83AE01455E5F4F99
:10468000698D7A8DCE0101960E9458234D815E81FD
:1046900057FD0AC02F813885421753070CF49A0141
:1046A000020F131FF80110822E96E4E00C944226AC
:1046B000ABE0B0E0EEE5F3E20C9418267C013B01A0
:1046C0008A01FC0117821682838181FFC8C1CE0155
:1046D00001965C01F7019381F30193FD859193FFAE
:1046E00081913F01882309F453C1853239F493FD48
:1046F000859193FF81913F01853229F4B70190E0C4
:104700000E944825E7CF912C212C312CFFE1F31595
:1047100038F08B3211F190F4803209F1833229F1B3
:1047200037FC3CC020ED280F2A3050F536FE20C063
:104730008AE0989E200D1124922E06C08D3291F0B1
:10474000803371F7689430F8F30193FD859193FFFE
:1047500081913F018111DACF21C0689431F86894CA
:1047600032F8F2CF689433F8EFCF689434F8ECCF96
:10477000EAE02E9E200D1124222E689435F8E4CF15
:104780008E3229F436FC04C1689436F8DDCF8C36BD
:1047900019F4689437F8D8CF8836B1F2982F9F7DF6
:1047A00095549330E0F08336A1F18337C1F183351E
:1047B00009F063C02801F2E04F0E511CF801C080DF
:1047C000D180692D70E036FC02C06FEF7FEFC6012B
:1047D0000E9432254C01689437F882010AC00C5FB0
:1047E0001F4FFFE3F98388248394912C6501E8949B
:1047F00037F833FE2DC0522C8114910471F55520E9
:1048000009F468CFB70180E290E00E9448255A94ED
:10481000F6CFF801808189830E5F1F4FE4CF280116
:10482000F2E04F0E511CF801C080D180692D70E07C
:1048300036FC02C06FEF7FEFC6010E943D254C01A0
:104840008201D5CFB70180E290E00E9448252A94EA
:104850002814190409F0B0F7CECFF60137FC859182
:1048600037FE81916F01B70190E00E9448255110F9
:104870005A94F1E08F1A9108BFCF843619F0893627
:1048800009F077C0F80137FE6BC0608171818281C9
:1048900093810C5F1F4FF32DFF763F2E97FF09C0CA
:1048A00090958095709561957F4F8F4F9F4F68943D
:1048B00037F82AE030E0A5010E947825C82ECA18F2
:1048C0008C2C432C36FE0CC0E89440F8C91440F4FC
:1048D00034FE05C032FC03C0F32DFE7E4F2E892C22
:1048E00044FE95C0FE01EC0DF11D8081803309F07E
:1048F00087C0242D297E422E842D8870582E43FC9B
:1049000095C040FE8FC09C2C821418F42C0C922C65
:10491000981844FE91C0B70180E390E00E944825BA
:1049200042FE09C088E790E041FE02C088E590E0C1
:10493000B7010E944825C91408F48AC0CA94D12C32
:104940009FEFC91AD90ACA0CDB1CF60182916F01CC
:10495000B70190E00E944825AC14BD04B1F74FCFD9
:1049600060817181072E000C880B990B0E5F1F4F21
:1049700092CFD32CE894D4F82AE030E0853739F18F
:10498000232D297FD22E8F3601F148F48835A9F0E6
:10499000F701868197812B96E2E10C9434268037CB
:1049A00049F08837A9F7D4FE02C06894D2F820E114
:1049B00030E00DC06894D4F8F6CF34FE03C0822FE7
:1049C0008660D82E20E132E002C028E030E0F80115
:1049D000D7FE0FC060817181828193810C5F1F4F70
:1049E000A5010E947825C82ECA183D2CE89437F8F6
:1049F00067CF6081718190E080E00E5F1F4FF0CF44
:104A000042FC02C0839478CF8394839475CF842D25
:104A1000867809F471CFF6CFB70180E290E00E946A
:104A2000482583948214C0F3512C73CF522C58180C
:104A3000821408F46ECFF8CF842D867809F47BCFEA
:104A40008BE241FE80E247FC8DE2B70190E071CF3E
:104A5000B70180E390E00E9448259A946CCF8FEFD5
:104A60009FEF99CFFC010590615070400110D8F77D
:104A7000809590958E0F9F1F0895FC0161507040A6
:104A800001900110D8F7809590958E0F9F1F089583
:104A90000F931F93CF93DF93182F092FEB018B8177
:104AA00081FD09C01FEF0FEF812F902FDF91CF9174
:104AB0001F910F91089582FF14C02E813F818C8138
:104AC0009D81281739073CF4E881F981CF010196CF
:104AD0009983888310838E819F8101969F838E8323
:104AE000E3CFE885F985812F0995892BA1F3DACFEA
:104AF000FA01AA27283051F1203181F1E8946F930F
:104B00006E7F6E5F7F4F8F4F9F4FAF4FB1E03ED0B4
:104B1000B4E03CD0670F781F891F9A1FA11D680F52
:104B2000791F8A1F911DA11D6A0F711D811D911D85
:104B3000A11D20D009F468943F912AE0269F1124FA
:104B40003019305D3193DEF6CF010895462F47705E
:104B5000405D4193B3E00FD0C9F7F6CF462F4F70B9
:104B6000405D4A3318F0495D31FD4052419302D017
:104B7000A9F7EACFB4E0A6959795879577956795BD
:104B8000BA95C9F700976105710508959B01AC01BD
:104B90000A2E06945795479537952795BA95C9F7E4
:104BA000620F731F841F951FA01D0895F999FECFF2
:104BB00092BD81BDF89A992780B50895A8E1B0E02B
:104BC00042E050E00C940A26262FF999FECF92BDC0
:104BD00081BDF89A019700B4021639F01FBA20BDC2
:104BE0000FB6F894FA9AF99A0FBE08950396272FF4
:104BF0000E94E5250E94E425252F0E94E525242F0B
:104C00000C94E5250196272F0E94E5250C94E425B8
:104C1000DC01CB01FC01F999FECF06C0F2BDE1BD7C
:104C2000F89A319600B40D9241505040B8F708956B
:104C30002F923F924F925F926F927F928F929F92AC
:104C4000AF92BF92CF92DF92EF92FF920F931F939A
:104C5000CF93DF93CDB7DEB7CA1BDB0B0FB6F8944B
:104C6000DEBF0FBECDBF09942A88398848885F848B
:104C70006E847D848C849B84AA84B984C884DF80FC
:104C8000EE80FD800C811B81AA81B981CE0FD11DE0
:104C90000FB6F894DEBF0FBECDBFED010895F894B6
:024CA000FFCF44
:104CA200019F0100A00105A001AF00013002280808
:104CB200641E140A321E511CB01C8F1C8B1C871CD4
:104CC20001E200E900EA00B500B600B700CD0083BA
:104CD20001CC008A019201940121022302240225BF
:104CE20002260227022A02B300B4006F007000817C
:104CF2008283F4F5F6F73133329497C634350000E7
:104D02000000000A25640A00E200E900EA00B5009A
:104D1200B600B700CD008301CC008A019201940154
:104D22002102230224022502260227022A02B300BC
:0A4D3200B4006F007000818283005E
:00000001FF
